:020000040000FA
:04000000E9EF0AF02A
:10060000002020202020202020202020202020200A
:10061000200020202020205345545F4C4F472020AD
:1006200020200020202020564945575F4C4F47206E
:100630002020200020202020574149545F464F525F
:10064000202020200020454E544552205041535335
:10065000574F524420002057524F4E475F5041534E
:1006600053574F524420002020417474656D7074BC
:1006700073206C6566742000436F7272656374202A
:1006800050617373776F726400202054696D6572D6
:1006900020202045202053500043200047310047B0
:1006A0003200473300473400474E004F4E00475258
:1006B00000001A50800B276E1A501A242E6E19AEA5
:1006C00064EF03F066EF03F067EF03F02E802E5027
:1006D000D8B46DEF03F06FEF03F084EF03F02E2832
:1006E000D8A475EF03F077EF03F07FEF03F0000E6F
:1006F000176E000E186E000E196E000E1A6E198E0F
:10070000000E1A6E8CEF03F0000E176E000E186EBE
:10071000000E196E000E1A6E1E50800B271A1E5006
:100720001E242F6E1DAE97EF03F099EF03F09AEFA2
:1007300003F02F802F50D8B4A0EF03F0A2EF03F006
:10074000B7EF03F02F28D8A4A8EF03F0AAEF03F027
:10075000B2EF03F0000E1B6E000E1C6E000E1D6E3D
:10076000000E1E6E1D8E000E1E6EBFEF03F0000EFB
:100770001B6E000E1C6E000E1D6E000E1E6E1B50BA
:100780001C101D101E10D8A4C8EF03F0CAEF03F010
:10079000E2EF03F0000E176E000E186E000E196ED9
:1007A000000E1A6E800E19127F0E1A1227501A129E
:1007B00017C017F018C018F019C019F01AC01AF0B5
:1007C00025EF05F02E50D8A4E8EF03F0EAEF03F090
:1007D000F4EF03F0000E176E000E186E000E196E87
:1007E000000E1A6E25EF05F02F502EC01FF0206A64
:1007F0001F5E000E205A7F0E1F24286E000E202040
:10080000296E17C023F018C024F019C025F01AC0B3
:1008100026F0000E176E000E186E000E196E000EF8
:100820001A6E000E2A6E000E2B6E000E2C6E000E3D
:100830002D6E000E2F6E55EF04F02F50D8B423EF1D
:1008400004F025EF04F03CEF04F0D8902336243672
:1008500025362636D8901736183619361A362DAE64
:1008600034EF04F036EF04F037EF04F01780D8903F
:100870002A362B362C362D361B50235C1C50245820
:100880001D5025581E502658D8A049EF04F04BEFB4
:1008900004F054EF04F02D8C1B50235E1C50245A9E
:1008A0001D50255A1E50265A2F2A190E2F645BEF11
:1008B00004F05DEF04F01DEF04F023502410251028
:1008C0002610D8B466EF04F068EF04F080EF04F06F
:1008D0002A8080EF04F0D8901736183619361A3669
:1008E0002DAE75EF04F077EF04F078EF04F0178089
:1008F000D8902A362B362C362D362806D8A0290635
:1009000019AE85EF04F087EF04F06BEF04F0000EF2
:100910002F6E2DAE8EEF04F090EF04F0B4EF04F0E4
:10092000FF0E2A141F6EFF0E2B14206EFF0E2C14C8
:10093000216E7F0E2D14226E1F50201021102210C8
:10094000D8B4A5EF04F0A7EF04F0ABEF04F0010E6C
:100950002F6EB4EF04F017A0B0EF04F0B2EF04F084
:10096000B4EF04F0A7EF04F02F50D8B4BAEF04F0BE
:10097000BCEF04F0E0EF04F0010E1726000E182281
:1009800019221A221AA0C7EF04F0C9EF04F0E0EF11
:1009900004F017C01FF018C020F019C021F01AC0D1
:1009A00022F022342232213220321F321FC017F0AF
:1009B00020C018F021C019F022C01AF0284A292AB4
:1009C00029BEEBEF04F0295008E12828D8A0EBEF6E
:1009D00004F0EDEF04F0F8EF04F0000E296E286843
:1009E000000E176E000E186E000E196E000E1A6EB5
:1009F00029BE05EF05F0295006E12804D8B003EF21
:100A000005F005EF05F013EF05F0000E296E000E5E
:100A1000286E000E176E000E186E000E196E000E76
:100A20001A6E000E276E28C02EF02EA01AEF05F0C9
:100A30001CEF05F01FEF05F0198E20EF05F0199E51
:100A4000D8902E301A6ED6EF03F01200000E1F6EF3
:100A5000000E1E6E000E1B6E4DC00CF04EC00DF051
:100A60004FC00EF050C00FF0000E266E000E256E27
:100A7000000E146E000E226E000E216E000E206E0F
:100A8000000E236E000E1A6E000E196E91EF06F026
:100A90001E501F10D8A44FEF05F051EF05F059EF8D
:100AA00005F0450E036E060E046E800E056EAAEC70
:100AB0000AF0010EDEEC09F0246E1B50D8A463EF9F
:100AC00005F065EF05F08EEF05F0194A1A2A210EA0
:100AD000191807E1030E1A18D8A471EF05F073EF87
:100AE00005F08EEF05F0000E1A6E000E196E205004
:100AF000D8A47DEF05F07FEF05F087EF05F02550D6
:100B0000C40F086E5F0E1FEC0BF08DEF05F0255043
:100B1000C40F086E200E1FEC0BF0201E0B0E2418C5
:100B2000D8B495EF05F097EF05F0A0EF05F00C0EA7
:100B30002418D8A49EEF05F0A0EF05F0CAEF05F049
:100B40002550C40F086E2A0E1FEC0BF0100E252442
:100B5000D96E000E2620DA6E2450250FDF6E100E9F
:100B60002524D96E000E2620DA6E0C0E2524E16EA7
:100B7000000E2620E26EDE50E618D8B4C2EF05F073
:100B8000C4EF05F0C8EF05F0000E226E010E216ED5
:100B9000254A262A21502210D8A4D1EF05F0D3EF00
:100BA00005F008EF06F0040E25182610D8A4DBEF98
:100BB00005F0DDEF05F008EF06F0010E1B6E000EEC
:100BC0001F6E010E1E6E780E036E060E046E800EF2
:100BD000056EAAEC0AF0000E1D6E000E1C6E1C4A7B
:100BE0001D2A1DBEFDEF05F0100E1C5C270E1D58C2
:100BF000D8A0FDEF05F0FFEF05F0EFEF05F0000ED8
:100C0000016E010ECCEC0AF0020E546E91EF06F06C
:100C100021042210D8A40FEF06F011EF06F086EFA2
:100C200006F0040E25182610D8A419EF06F01BEFC5
:100C300006F086EF06F0030E236021EF06F023EFA7
:100C400006F06AEF06F0560E036E060E046E800E76
:100C5000056EAAEC0AF0670E036E060E046EC00E57
:100C6000056EAAEC0AF0C00E086E235033081FEC84
:100C70000BF0000E1B6E000E266E000E256E000E91
:100C80001F6E000E1E6E000E226E000E216E232AB5
:100C9000A00E156E860E166E010E176E000E186EE3
:100CA0001506000E165A175A185A15280AE1162862
:100CB00008E1172806E11828D8A461EF06F063EFD1
:100CC00006F050EF06F0000E016E010ECCEC0AF0BB
:100CD00086EF06F0340E036E060E046E800E056E6F
:100CE000AAEC0AF0010E036E060E046EC00E056E2D
:100CF000AAEC0AF0000E1B6E000E266E000E256E8A
:100D0000000E236E000E226E000E216E265009E1A9
:100D1000050E255CD8A08FEF06F091EF06F048EFA6
:100D200005F01E041F10D8A498EF06F09AEF06F005
:100D300086EF06F01200116E1150D8B4A2EF06F043
:100D4000A4EF06F0C6EF06F00CBEABEF06F0A9EF7D
:100D500006F0C6EF06F009C00DF00AC00EF00BC099
:100D60000FF00CC010F00D1E0E1E0F1E101E0D2ACF
:100D7000000E0E220F2210220DC013F00EC014F030
:100D80000FC015F010C016F0CEEF06F009C013F03A
:100D90000AC014F00BC015F00CC016F009500A1070
:100DA0000B100C10D8A4D7EF06F0D9EF06F0E3EF44
:100DB00006F0000E096E000E0A6E000E0B6E000E9D
:100DC0000C6E74EF07F0960E126EEDEF06F0122A1D
:100DD000D8901632153214321332000E13140D6EE1
:100DE000000E14140E6E000E15140F6EFE0E161467
:100DF000106E0D500E100F101010D8A402EF07F057
:100E000004EF07F0E7EF06F012EF07F0122A010EE9
:100E10001326000E142215221622D89016321532EF
:100E200014321332000E13140D6E000E14140E6ED5
:100E3000000E15140F6EFF0E1614106E0D500E10CE
:100E40000F101010D8A427EF07F029EF07F006EFD6
:100E500007F031EF07F01206D89013361436153626
:100E6000163615BE36EF07F038EF07F040EF07F003
:100E7000020E12603EEF07F040EF07F02BEF07F095
:100E800012B045EF07F047EF07F048EF07F0159E67
:100E9000D890123212C00DF00E6A0F6A106A0DC09F
:100EA00010F00F6A0E6A0D6A0D5013120E501412D4
:100EB0000F501512105016121150D8B462EF07F0EF
:100EC00064EF07F06CEF07F00CBE6BEF07F069EF13
:100ED00007F06CEF07F0168E13C009F014C00AF08B
:100EE00015C00BF016C00CF01200819A818C818E17
:100EF00081B27DEF07F07FEF07F082EF07F0010E80
:100F0000F8EF07F081B487EF07F089EF07F08CEF77
:100F100007F0040EF8EF07F081B691EF07F093EFBA
:100F200007F096EF07F0070EF8EF07F081B89BEF98
:100F300007F09DEF07F0A0EF07F00A0EF8EF07F0BB
:100F4000818A819C818E81B2A8EF07F0AAEF07F019
:100F5000ADEF07F0020EF8EF07F081B4B2EF07F043
:100F6000B4EF07F0B7EF07F0050EF8EF07F081B622
:100F7000BCEF07F0BEEF07F0C1EF07F0080EF8EF87
:100F800007F081B8C6EF07F0C8EF07F0CBEF07F026
:100F90000B0EF8EF07F0818A818C819E819E81B2D1
:100FA000D4EF07F0D6EF07F0D9EF07F0030EF8EF14
:100FB00007F081B4DEEF07F0E0EF07F0E3EF07F0B2
:100FC000060EF8EF07F081B6E8EF07F0EAEF07F05A
:100FD000EDEF07F0090EF8EF07F081B8F2EF07F038
:100FE000F4EF07F0F7EF07F00C0EF8EF07F0FF0E45
:100FF000120032343334396E3950D8A402EF08F07D
:1010000004EF08F00EEF08F0000E306E000E316EA7
:10101000000E326E000E336E7BEF08F030C034F0FD
:1010200031C035F032C036F033C037F0200E1EEF3D
:1010300008F0D8903732363235323432E82E19EF94
:1010400008F03450386E328EFF0E3016FF0E311617
:10105000FF0E3216000E3316960E395E39BE35EF8E
:1010600008F033EF08F04BEF08F03950800A970F83
:10107000D8B03DEF08F03FEF08F041EF08F004EF83
:1010800008F0D8903332323231323032393E41EFCB
:1010900008F063EF08F01F0E396451EF08F053EFCA
:1010A00008F05BEF08F004EF08F0D89030363136E6
:1010B0003236333639063950D8A461EF08F063EF81
:1010C00008F055EF08F03850D8B469EF08F06BEF2E
:1010D00008F073EF08F0331E321E311E306C000E24
:1010E00031223222332230C030F031C031F032C0F0
:1010F00032F033C033F01200010EDEEC09F0066E60
:101100000650076E086A07040810D8A48AEF08F092
:101110008CEF08F092EF08F0000E526E000E516E48
:10112000DBEF08F0020E07180810D8A49AEF08F0B9
:101130009CEF08F0BEEF08F052BEAAEF08F0525044
:1011400007E1060E515CD8B0A8EF08F0AAEF08F04E
:10115000AEEF08F0514A522ADBEF08F0070E5118A3
:101160005210D8A4B6EF08F0B8EF08F0DBEF08F0A3
:10117000000E526E010E516EDBEF08F0030E0718E1
:101180000810D8A4C6EF08F0C8EF08F0DBEF08F0AD
:1011900052BED4EF08F0525009E1020E515CD8A0C3
:1011A000D4EF08F0D6EF08F0DBEF08F05106D8A036
:1011B0005206DBEF08F0D8905134D96E5234DA6E13
:1011C0003D0ED926000EDA22DECF03F0DDCF04F08B
:1011D000CA0E056EAAEC0AF01200000E956E94502D
:1011E000F80B946E8290020E046E040E036EBA0E1B
:1011F000E82EFED7032EFCD7042EFAD700D0000E1F
:10120000016E330ECCEC0AF01B0E036E9E0EE82E20
:10121000FED7032EFCD700D0000E016E330ECCECAF
:101220000AF0A60EE82EFED700D0000E016E330E97
:10123000CCEC0AF000D000D000F0000E016E020EDF
:10124000CCEC0AF0A60EE82EFED700D0000E016E00
:10125000380ECCEC0AF0A60EE82EFED700D0000E19
:10126000016E010ECCEC0AF0040E036E3E0EE82E69
:10127000FED7032EFCD7000E016E0C0ECCEC0AF04C
:10128000A60EE82EFED700D01200140E1B6EAE0E76
:101290001C6E230E1D6E410E1E6E040E85EC0AF0B0
:1012A00001C009F002C00AF00B6A0C6A000E9BEC48
:1012B00006F009C017F00AC018F00BC019F00CC0F6
:1012C0001AF059EC03F017C030F018C031F019C013
:1012D00032F01AC033F0F9EC07F030C03AF031C008
:1012E0003BF0CE0E086E3AC001F03BC002F0000E9B
:1012F000046E0A0E036E19EC0AF00150300F1FEC59
:101300000BF0CF0E086E3AC001F03BC002F0000EA9
:10131000046E0A0E036E53EC0AF00150300F1FECFE
:101320000BF0120042EC0BF0010EDEEC09F03C6E0B
:101330000A0E3C18D8B49FEF09F0A1EF09F0B3EF03
:1013400009F00B0E3C18D8B4A8EF09F0AAEF09F089
:10135000B3EF09F00C0E3C18D8A4B1EF09F0B3EFCD
:1013600009F0B5EF09F0010E546E5450D8A4BBEF4C
:1013700009F0BDEF09F0C1EF09F012EC0BF094EFAA
:1013800009F05404D8A4C7EF09F0C9EF09F0CDEF74
:1013900009F026EC05F094EF09F0020E5418D8A4D9
:1013A000D4EF09F0D6EF09F0DAEF09F001EC0BF019
:1013B00094EF09F094EF09F000EF00F0016E015096
:1013C000D8A4E5EF09F0E7EF09F0EBEF09F075ECD1
:1013D00007F018EF0AF00104D8A4F1EF09F0F3EFD9
:1013E00009F017EF0AF075EC07F0026E0228D8B486
:1013F000FCEF09F0FEEF09F00BEF0AF05350D8B400
:1014000004EF0AF006EF0AF00BEF0AF0000E536E3D
:10141000025018EF0AF00228D8A411EF0AF013EFD7
:101420000AF017EF0AF0010E536E17EF0AF0FF0EE5
:101430001200000E066E000E056E03500410D8B4A4
:1014400024EF0AF026EF0AF04EEF0AF0010E076EC5
:101450002EEF0AF0D89003360436072A04AE33EF95
:101460000AF035EF0AF02AEF0AF0D8900536063672
:101470000350015C04500258D8A041EF0AF043EF3A
:101480000AF048EF0AF00350015E0450025A05804A
:10149000D89004320332072E35EF0AF005C001F070
:1014A00006C002F0120003500410D8B45AEF0AF03C
:1014B0005CEF0AF080EF0AF0010E056E64EF0AF0AF
:1014C000D89003360436052A04AE69EF0AF06BEFB4
:1014D0000AF060EF0AF00350015C04500258D8A0F3
:1014E00074EF0AF076EF0AF07AEF0AF00350015E2B
:1014F0000450025AD89004320332052E6BEF0AF0E2
:1015000001C001F002C002F01200086E08C003F032
:10151000D8900336D8900336C250C30B0310C26E66
:10152000C08EC282C2B297EF0AF099EF0AF092EF32
:101530000AF0C4CF03F0030E03160350056E046ACD
:10154000C350066E076A04500610016E055007105E
:10155000026E1200000E016E0550CCEC0AF0BDEFD9
:101560000AF0010E016E03C0F6FF04C0F7FF080089
:10157000F550CCEC0AF0034A042A03C0F6FF04C07D
:10158000F7FF0800F5500009D8A4C9EF0AF0CBEF27
:101590000AF0B1EF0AF01200026E01B0D2EF0AF0C9
:1015A000D5EF0AF08282D6EF0AF0829202C083FF62
:1015B00082848294958E828082928284829483BE79
:1015C000E4EF0AF0E6EF0AF0DDEF0AF08290959E74
:1015D0001200560EF66E160EF76E000EF86E00EE46
:1015E0003DF010EE17F00900F5CFEEFFE550E150A9
:1015F000FAE1546A000EF86E060EF76E000192EFE3
:1016000009F0230E036E060E046E800E056EAAEC22
:101610000AF0120E036E060E046EC00E056EAAECE2
:101620000AF01200890E036E060E046E800E056E1F
:10163000AAEC0AF07CEC08F045EC09F01200096E07
:10164000000E016E0850CCEC0AF0010E016E09503C
:10165000CCEC0AF012009906A8069C069F06A2068A
:0D166000A506AE06AB0631303130070001A3
:10166E00C280C19AC198C186C194C182C190C08AFC
:10167E00C098C0961200EDEC08F049EC0BF037EC78
:0C168E000BF012001E0E936EF19E120075
:020000040020DA
:08000000FFFFFFFFFFFFFFFF00
:020000040030CA
:0E000000FF071F1FFF8285FF0FC00FE00F409C
:00000001FF
